:020000040800F2
:1000000000000220813E00089D2F0008A52F000857
:10001000AD2F0008B52F0008BD2F0008000000001C
:10002000000000000000000000000000C52F0008D4
:10003000D32F000800000000E12F0008EF2F000878
:10004000D13E0008D13E0008D13E0008D13E000854
:10005000D13E0008D13E0008D13E0008D13E000844
:10006000FB2F0008D13E0008D13E0008D13E000819
:1000700009300008D13E00081D300008D13E0008BC
:1000800031300008D13E0008D13E000800000000D9
:1000900000000000000000000000000045300008E3
:1000A0005530000869300008D13E0008D13E0008F4
:1000B000D13E0008D13E0008D13E0008D13E0008E4
:1000C000D13E0008D13E0008D13E0008D13E0008D4
:1000D000D13E0008D13E0008D13E000800000000DB
:1000E0007D300008D13E0008D13E0008000000002D
:1000F0000000000000000000000000008D3000083B
:1001000000000000D13E0008A1300008D13E0008E8
:1001100000000000000000000000000000000000DF
:10012000D13E0008D13E0008D13E0008D13E000873
:10013000D13E0008000000000000000000000000A8
:10014000000000000000000000000000B5300008C2
:10015000D13E0008D13E0008D13E0008D13E000843
:10016000D13E0008D13E0008000000000000000061
:10017000000000000000000000000000000000007F
:1001800000000000D13E0008000000000000000058
:08019000D13E0008D13E000839
:1001A00010B5054C237833B9044B13B10448AFF3B1
:1001B00000800123237010BD800300200000000098
:1001C000240A010808B5034B1BB103490348AFF3E8
:1001D000008008BD0000000084030020240A0108FC
:1001E00001F0FF01102A2BDB10F0070F08D010F8E8
:1001F000013B013A8B422DD010F0070F42B3F6D1EC
:10020000F0B441EA012141EA014122F007047FF004
:1002100000070023F0E80256083C85EA010586EA5B
:10022000010685FA47F5A3FA87F586FA47F6A5FA97
:1002300087F68EB9EED1F0BC01F0FF0102F00702A3
:1002400032B110F8013B013A83EA010313B1F8D14E
:100250000020704701387047002D06BF354603382F
:10026000073815F0010F07D1013015F4807F02BF68
:10027000013015F4C03F0130F0BC0138704700BFB9
:10028000034613F8012B002AFBD1181A01387047D6
:1002900081F0004102E000BF83F0004330B54FEA37
:1002A00041044FEA430594EA050F08BF90EA020FA4
:1002B0001FBF54EA000C55EA020C7FEA645C7FEA37
:1002C000655C00F0E2804FEA5454D4EB5555B8BF5A
:1002D0006D420CDD2C4480EA020281EA030382EACB
:1002E000000083EA010180EA020281EA0303362D5D
:1002F00088BF30BD11F0004F4FEA01314FF4801C30
:100300004CEA113102D0404261EB410113F0004F41
:100310004FEA03334CEA133302D0524263EB4303F8
:1003200094EA050F00F0A780A4F10104D5F1200E96
:100330000DDB02FA0EFC22FA05F2801841F10001F1
:1003400003FA0EF2801843FA05F359410EE0A5F1C5
:1003500020050EF1200E012A03FA0EFC28BF4CF0F6
:10036000020C43FA05F3C01851EBE37101F00045AC
:1003700007D54FF0000EDCF1000C7EEB00006EEBB9
:100380000101B1F5801F1BD3B1F5001F0CD3490843
:100390005FEA30004FEA3C0C04F101044FEA44529A
:1003A00012F5800F80F09A80BCF1004F08BF5FEA21
:1003B000500C50F1000041EB045141EA050130BD01
:1003C0005FEA4C0C404141EB0101013C28BFB1F513
:1003D000801FE9D291F0000F04BF01460020B1FA5E
:1003E00081F308BF2033A3F10B03B3F120020CDA31
:1003F0000C3208DD02F1140CC2F10C0201FA0CF00F
:1004000021FA02F10CE002F11402D8BFC2F1200C73
:1004100001FA02F120FA0CFCDCBF41EA0C01904029
:10042000E41AA2BF01EB0451294330BD6FEA040472
:100430001F3C1CDA0C340EDC04F11404C4F120025D
:1004400020FA04F001FA02F340EA030021FA04F36F
:1004500045EA030130BDC4F10C04C4F1200220FAC6
:1004600002F001FA04F340EA0300294630BD21FA04
:1004700004F0294630BD94F0000F83F4801306BFCA
:1004800081F480110134013D4EE77FEA645C18BFBE
:100490007FEA655C29D094EA050F08BF90EA020F55
:1004A00005D054EA000C04BF1946104630BD91EA4D
:1004B000030F1EBF0021002030BD5FEA545C05D150
:1004C0004000494128BF41F0004130BD14F580048F
:1004D0003CBF01F5801130BD01F0004545F0FE4103
:1004E00041F470014FF0000030BD7FEA645C1ABF38
:1004F000194610467FEA655C1CBF0B46024650EA6F
:10050000013406BF52EA033591EA030F41F400219A
:1005100030BD00BF90F0000F04BF0021704730B520
:100520004FF4806404F132044FF000054FF00001F5
:1005300050E700BF90F0000F04BF0021704730B5B6
:100540004FF4806404F1320410F0004548BF40428B
:100550004FF000013EE700BF42004FEAE2014FEAE0
:1005600031014FEA02701FBF12F07F4393F07F4FBB
:1005700081F06051704732F07F4208BF704793F0BE
:100580007F4F04BF41F40021704730B54FF46074D1
:1005900001F0004521F000411CE700BF50EA0102D4
:1005A00008BF704730B54FF000050AE050EA01027D
:1005B00008BF704730B511F0004502D5404261EBED
:1005C00041014FF4806404F132045FEA915C3FF42E
:1005D000D8AE4FF003025FEADC0C18BF03325FEACB
:1005E000DC0C18BF033202EBDC02C2F1200300FA7C
:1005F00003FC20FA02F001FA03FE40EA0E0021FAA1
:1006000002F11444BDE600BF70B54FF0FF0C4CF48E
:10061000E06C1CEA11541DBF1CEA135594EA0C0F40
:1006200095EA0C0F00F0DEF82C4481EA030621EA7B
:100630004C5123EA4C5350EA013518BF52EA0335B6
:1006400041F4801143F4801338D0A0FB02CE4FF068
:100650000005E1FB02E506F00042E0FB03E54FF098
:100660000006E1FB03569CF0000F18BF4EF0010E90
:10067000A4F1FF04B6F5007F64F5407404D25FEA8C
:100680004E0E6D4146EB060642EAC62141EA55513F
:100690004FEAC52040EA5E504FEACE2EB4F1FD0C81
:1006A00088BFBCF5E06F1ED8BEF1004F08BF5FEAFF
:1006B000500E50F1000041EB045170BD06F00046B1
:1006C00046EA010140EA020081EA0301B4EB5C045E
:1006D000C2BFD4EB0C0541EA045170BD41F4801156
:1006E0004FF0000E013C00F3AB8014F1360FDEBF7B
:1006F000002001F0004170BDC4F10004203C35DA57
:100700000C341BDC04F11404C4F1200500FA05F3D9
:1007100020FA04F001FA05F240EA020001F000427A
:1007200021F0004110EBD37021FA04F642EB0601F0
:100730005EEA430E08BF20EAD37070BDC4F10C041A
:10074000C4F1200500FA04F320FA05F001FA04F2DE
:1007500040EA020001F0004110EBD37041F10001CA
:100760005EEA430E08BF20EAD37070BDC4F12005D5
:1007700000FA05F24EEA020E20FA04F301FA05F23D
:1007800043EA020321FA04F001F0004121FA04F2E5
:1007900020EA020000EBD3705EEA430E08BF20EAB5
:1007A000D37070BD94F0000F0FD101F000464000EF
:1007B00041EB010111F4801F08BF013CF7D041EA71
:1007C000060195F0000F18BF704703F00046520075
:1007D00043EB030313F4801F08BF013DF7D043EA46
:1007E0000603704794EA0C0F0CEA135518BF95EAFC
:1007F0000C0F0CD050EA410618BF52EA4306D1D183
:1008000081EA030101F000414FF0000070BD50EAA1
:10081000410606BF1046194652EA430619D094EA2B
:100820000C0F02D150EA013613D195EA0C0F05D115
:1008300052EA03361CBF104619460AD181EA030169
:1008400001F0004141F0FE4141F470014FF0000021
:1008500070BD41F0FE4141F4780170BD70B54FF0BC
:10086000FF0C4CF4E06C1CEA11541DBF1CEA13553C
:1008700094EA0C0F95EA0C0F00F0A7F8A4EB05041E
:1008800081EA030E52EA03354FEA013100F0888015
:100890004FEA03334FF0805545EA131343EA1263DE
:1008A0004FEA022245EA111545EA10654FEA002693
:1008B0000EF000419D4208BF964244F1FD0404F54C
:1008C000407402D25B084FEA3202B61A65EB0305A8
:1008D0005B084FEA32024FF480104FF4002CB6EB65
:1008E000020E75EB030E22BFB61A754640EA0C00E5
:1008F0005B084FEA3202B6EB020E75EB030E22BF25
:10090000B61A754640EA5C005B084FEA3202B6EB65
:10091000020E75EB030E22BFB61A754640EA9C0024
:100920005B084FEA3202B6EB020E75EB030E22BFF4
:10093000B61A754640EADC0055EA060E18D04FEAB2
:10094000051545EA16754FEA06164FEAC30343EA52
:1009500052734FEAC2025FEA1C1CC0D111F4801F1F
:100960000BD141EA00014FF000004FF0004CB6E718
:1009700011F4801F04BF01430020B4F1FD0C88BFB7
:10098000BCF5E06F3FF6AFAEB5EB030C04BFB6EBC2
:10099000020C5FEA500C50F1000041EB045170BDB5
:1009A0000EF0004E4EEA113114EB5C04C2BFD4EBE2
:1009B0000C0541EA045170BD41F480114FF0000E66
:1009C000013C90E645EA060E8DE60CEA135594EAE2
:1009D0000C0F08BF95EA0C0F3FF43BAF94EA0C0FE5
:1009E0000AD150EA01347FF434AF95EA0C0F7FF45A
:1009F00025AF104619462CE795EA0C0F06D152EAAE
:100A000003353FF4FDAE1046194622E750EA410691
:100A100018BF52EA43067FF4C5AE50EA41047FF4A2
:100A20000DAF52EA43057FF4EBAE12E74FF0FF3C07
:100A300006E000BF4FF0010C02E000BF4FF0010CD8
:100A40004DF804CD4FEA410C7FEA6C5C4FEA430C51
:100A500018BF7FEA6C5C1BD001B050EA410C0CBFA0
:100A600052EA430C91EA030F02BF90EA020F002002
:100A7000704710F1000F91EA030F58BF994208BF69
:100A800090422CBFD8176FEAE37040F00100704726
:100A90004FEA410C7FEA6C5C02D150EA013C07D17D
:100AA0004FEA430C7FEA6C5CD6D152EA033CD3D0C8
:100AB0005DF8040B704700BF8446104662468C46C2
:100AC0001946634600E000BF01B5FFF7B7FF0028F5
:100AD00048BF10F1000F01BD4DF808EDFFF7F4FF1E
:100AE0000CBF012000205DF808FB00BF4DF808EDA9
:100AF000FFF7EAFF34BF012000205DF808FB00BFCC
:100B00004DF808EDFFF7E0FF94BF012000205DF8ED
:100B100008FB00BF4DF808EDFFF7CEFF94BF0120A2
:100B200000205DF808FB00BF4DF808EDFFF7C4FF9B
:100B300034BF012000205DF808FB00BF4FEA410CE4
:100B40007FEA6C5C02D150EA013C0AD14FEA430CC7
:100B50007FEA6C5C02D152EA033C02D14FF0000004
:100B600070474FF0010070474FEA410212F5001242
:100B700015D211D56FF47873B3EB625212D94FEAE4
:100B8000C12343F0004343EA505311F0004F23FACE
:100B900002F018BF404270474FF00000704750EA23
:100BA000013005D111F0004008BF6FF000407047E0
:100BB0004FF00000704700BF4FEA4102B2F1E0433E
:100BC00024BFB3F5001CDCF1FE5C0DD901F0004C34
:100BD0004FEAC0024CEA5070B2F1004F40EB830084
:100BE00008BF20F00100704711F0804F21D113F1B0
:100BF0003872BCBF01F00040704741F480114FEAE9
:100C00005252C2F11802C2F1200C10FA0CF320FA71
:100C100002F018BF40F001004FEAC1234FEAD3238E
:100C200003FA0CFC40EA0C0023FA02F34FEA4303F8
:100C3000CCE77FEA625307D150EA01331EBF4FF081
:100C4000FE4040F44000704701F0004040F0FE409C
:100C500040F40000704700BF53B94AB9002908BFEB
:100C600000281CBF4FF0FF314FF0FF3000F06AB991
:100C7000ADF1080C6DE904CE00F006F8DDF804E0F3
:100C8000DDE9022304B070472DE9F047089D0C46CA
:100C9000002B4ED194468C458646B2FA82F262D938
:100CA0004AB1C2F12003914020FA03F30CFA02FC8E
:100CB000194300FA02FE4FEA1C471FFA8CF6B1FBFB
:100CC000F7F44FEA1E4307FB141143EA014304FB08
:100CD00006F199420AD91CEB030304F1FF3080F0BE
:100CE0001281994240F20F81023C6344591A1FFA63
:100CF0008EF3B1FBF7F007FB101143EA014300FB51
:100D000006F69E420AD91CEB030300F1FF3180F086
:100D1000FC809E4240F2F980634402389B1B40EA0B
:100D2000044000211DB1D3400022C5E90032BDE8D6
:100D3000F0878B4205D90DB1C5E9000100210846B5
:100D4000F5E7B3FA83F1002946D1A34202D39042DA
:100D5000C0F0F080861A64EB03030120002DE6D07A
:100D6000C5E90063E3E7002A40F09080A1EB0C04A2
:100D70004FEA1C481FFA8CF70121B4FBF8F64FEA42
:100D80001E4308FB164443EA044307FB06F098425F
:100D900008D91CEB030306F1FF3402D2984200F29B
:100DA000CD8026461C1A1FFA8EF3B4FBF8F008FB20
:100DB000104443EA044300FB07F79F4208D91CEBA9
:100DC000030300F1FF3402D29F4200F2B0802046BC
:100DD000DB1B40EA0640A5E7C1F120068B4022FA62
:100DE00006F71F4320FA06FC04FA01F343EA0C035A
:100DF000F44000FA01F8380C4FEA1349B4FBF0FE56
:100E00001FFA87FC00FB1E4449EA04440EFB0CF960
:100E1000A14502FA01F20AD93C190EF1FF3A80F01D
:100E20008480A14540F28180AEF1020E3C44A4EBE7
:100E300009041FFA83F9B4FBF0F300FB134449EAF9
:100E4000044403FB0CFCA44507D93C1903F1FF3013
:100E500067D2A44565D9023B3C4443EA0E40A0FB5F
:100E60000293A4EB0C049C42CE469C4651D34ED038
:100E700055B1B8EB0E0364EB0C0404FA06F6CB4054
:100E80001E43CC40C5E90064002150E7C2F12003B5
:100E900020FA03F10CFA02FC24FA03F394400C4309
:100EA0004FEA1C4800FA02FE1FFA8CF7B3FBF8F079
:100EB00008FB1031230C43EA014300FB07F1994280
:100EC00008D91CEB030300F1FF362CD299422AD932
:100ED000023863445B1AA4B2B3FBF8F108FB113388
:100EE00044EA034401FB07F3A34208D91CEB0404C2
:100EF00001F1FF3613D2A34211D902396444E41A36
:100F000041EA004139E70446F0E6084606E7C845ED
:100F1000AED2B9EB020E63EB070C0138A8E73146FD
:100F2000EDE7034699E73046D4E7D6467FE76344CA
:100F300002384DE70646234608460FE7023E634463
:100F400030E700BF704700BF80B500AF002210211E
:100F5000024804F069F800BF80BD00BF00000240F5
:100F600080B500AF01221021024804F05DF800BFF7
:100F700080BD00BF0000024090B589B000AF78602E
:100F800039600A230C2258490C2000F0BFF9564B57
:100F90009B781B021AB2544B5B781BB213431BB2F3
:100FA000FB83514B1B791B021AB24F4BDB781BB2F0
:100FB00013431BB2BB834C4B9B791B021AB24A4BA7
:100FC0005B791BB213431BB27B83474B1B7A1B021B
:100FD0001AB2454BDB791BB213431BB23B83424B26
:100FE0009B7A1B021AB2404B5B7A1BB213431BB2B3
:100FF000FB823D4B1B7B1B021AB23B4BDB7A1BB2C5
:1010000013431BB2BB8200F073F803467B823B8B19
:101010003B82BB8AFB813A8AB7F91230B7F90E10CE
:1010200001FB03F3002B01DA03F2FF135B129BB207
:10103000D31A9BB23B82B7F91E301021B0EE000AE2
:10104000184600F0A5F9F0EE407A7B68C3ED007A0F
:10105000B7F91C207B681C1D1021B0EE000A104659
:1010600000F096F9F0EE407AC4ED007AB7F91A2054
:101070007B6803F108041021B0EE000A104600F06E
:1010800087F9F0EE407AC4ED007AB7F910301021FC
:101090009FED160A184600F0DFF9F0EE407A3B6843
:1010A000C3ED007AB7F916203B681C1D10219FED97
:1010B0000F0A104600F0D0F9F0EE407AC4ED007A45
:1010C0003B6803F10804B7F90E3010219FED070AC1
:1010D000184600F0C1F9F0EE407AC4ED007A00BF86
:1010E0002437BD4690BD00BFA40300200000FA4491
:1010F00080B582B000AF0E493C2000F0C5F8034631
:101100007B717B7903F07F037B717B7903F0400374
:10111000002B05D07B799BB2803B9BB2FB8001E02A
:101120007B79FB80B7F9063018460837BD4680BD8D
:10113000A003002080B500AF00F098F8244806F026
:10114000A5FC2449002000F09FF80346242B0CBF87
:1011500001230023DBB21A461F4B1A701E4B1B786B
:10116000002B32D000217C2000F0B2F80A2002F0DF
:1011700023FF0021592000F0ABF8012002F01CFFF2
:1011800042F201026421154800F0E8F8012002F063
:1011900013FF0121592000F09BF8282002F00CFFDA
:1011A0000C49212000F070F80346012B0CBF0123ED
:1011B0000023DBB21A460A4B1A70094B1B78002B2E
:1011C00003D000F00FF800F03BF800BF80BD00BF77
:1011D0000C080020A00300209C030020500B0108F5
:1011E0009D03002080B500AF0E217D2000F070F837
:1011F000012002F0E1FEA821402000F069F8012062
:1012000002F0DAFEA921422000F062F8012002F08B
:10121000D3FE02217C2000F05BF8012002F0CCFE1E
:101220000021412000F054F8012002F0C5FE082101
:10123000432000F04DF8012002F0BEFE00BF80BD4B
:1012400080B500AF4421582000F042F80A2002F097
:10125000B3FE0A21532000F03BF80A2002F0ACFE56
:101260000A21542000F034F800BF80BD80B500AFE3
:10127000FFF76AFE012002F09FFEFFF771FE0A20D1
:1012800002F09AFE00BF80BD80B582B000AF034679
:101290003960FB71FB7963F07F03DBB2FB71FFF711
:1012A00053FEF91D0A230122084805F052FE0A23C5
:1012B00002223968054805F08FFFFFF751FE3B68B1
:1012C0005B7818460837BD4680BD00BF8006002009
:1012D00080B584B000AF03460A46FB711346BB716C
:1012E000FFF732FEFB793B73BB797B7307F10C018F
:1012F0000A230222044805F02CFEFFF731FE00BF4E
:101300001037BD4680BD00BF8006002080B584B088
:1013100000AFB9607B600346FB731346BB81FB7B68
:1013200063F07F03DBB2FB73FFF70EFE07F10F01E3
:101330000A230122084805F00CFEBB8901339AB24A
:101340007B68B968044805F047FFFFF709FEBB68F2
:1013500018461037BD4680BD8006002080B584B099
:1013600000AFF860B9601346FB80FFF7EDFDFA8827
:10137000BB68F968044805F0ECFDFFF7F1FD00BF1C
:101380001037BD4680BD00BF800600200000000071
:10139000B0B586B000AF034687ED000A0A46FB8071
:1013A00013467B714FF000024FF08043C7E90423DE
:1013B0007B791846FFF7AEF802460B4643EC112B3B
:1013C00097ED040B0EF0CEFB51EC100B4FF000022A
:1013D0004FF08043FFF742FA02460B46104619468B
:1013E000FFF7EAFB0346FB60B7F906301846FFF744
:1013F000A1F817A3D3E90023FFF706F902460B462D
:1014000014461D463868FFF7A7F802460B462046EB
:101410002946FFF7F9F802460B4614461D46F868C0
:10142000FFF79AF802460B4620462946FFF716FAC0
:1014300002460B4610461946FFF7BEFB034607EE71
:10144000903AB0EE670A1837BD46B0BDAFF30080E2
:101450009A9999999999234080B586B000AF03462F
:1014600087ED000A0A46FB8013467B714FF00002AD
:101470004FF08043C7E904237B791846FFF74AF809
:1014800002460B4643EC112B97ED040B0EF06AFB62
:1014900051EC100B4FF000024FF08043FFF7DEF9E4
:1014A00002460B4610461946FFF786FB0346FB60D3
:1014B000D7ED006AD7ED037A86EEA77AB7F9063042
:1014C00007EE903AF8EEE77A67EE277AB0EE670A11
:1014D0001837BD4680BD000080B582B000AF002344
:1014E0007B60184B1B6B174A43F400131363154BB7
:1014F0001B6B03F400137B607B68002201210C202E
:1015000002F059FE0C2002F072FE002201210E2092
:1015100002F051FE0E2002F06AFE0022012110208E
:1015200002F049FE102002F062FE002201212F206D
:1015300002F041FE2F2002F05AFE00BF0837BD46E0
:1015400080BD00BF0038024090B585B000AF786024
:1015500039603968786800F025F83B689B79C3F3F7
:101560000603DBB2FB730E4B1B78062B14D87F23CC
:10157000BB73FB7B9BB203F07F03BB81BB7B99B248
:10158000074B1B7805335B007A68D418BB89184673
:1015900000F079F80346238000BF1437BD4690BDA4
:1015A000B103002090B587B000AF786039600423A4
:1015B0007B730A233B733B7B012202FA03F39BB24A
:1015C000013B7B810023FB7500233B610023FB7300
:1015D0000023BB732EE0FB7B5A1CFA731A463B6850
:1015E00013445B787B727A7AFB7D02FA03F33A69E3
:1015F00013433B61FB7D0833FB75FA7D3B7B9A42CD
:10160000E9D33B699AB27B8913409AB2BB7B5B00FA
:1016100079680B4402F5777292B21A803B7B3A6983
:1016200022FA03F33B61FA7D3B7BD31AFB75BB7B4C
:101630000133BB73BA7B7B7B9A42DED33B689B79D9
:10164000C3F3C013DBB21A467B6803F108041046EB
:1016500000F006F80346238000BF1C37BD4690BD4E
:1016600080B483B000AF0346FB80FB88002B02D020
:101670004FF4FA6301E04FF47A7318460C37BD4615
:101680005DF8047B704780B483B000AF03460A4620
:10169000FB801346BB80FA88BB889A420CD8FB8833
:1016A0004FF47A7203FB02F2BB8892FBF3F39BB216
:1016B00003F57A739BB201E040F2DC5318460C3715
:1016C000BD465DF8047B704780B483B000AF03462D
:1016D000FB71FB7903F00702FB79DB08DBB203F057
:1016E000010313445A4203F0070302F0070258BFF4
:1016F0005342DAB2034B1A7000BF0C37BD465DF897
:10170000047B7047B103002080B582B000AF5A4B14
:101710001B8840F6B732934206D8574B1B880133DB
:101720009AB2554B1A80A4E000237B6031E0534B02
:101730001B78002B0ED17A681346DB001344DB00C4
:101740004F4A1A444F497B6831F813301946104606
:1017500000F0CEF84C497A6813465B0013449B00B6
:101760000B440433186848497A6813465B001344F5
:101770009B000B44083319687A681346DB00134456
:10178000DB003F4A1A44122306F0E2FA7B68013379
:101790007B607B68002BCADD374B1B8841F270727F
:1017A000934203D9354B01221A7062E0324B1B88F9
:1017B00001339AB2304B1A80344B1B78002B28D05F
:1017C000304B1B88013B9AB22E4B1A802D4B5B8805
:1017D000013B9AB22B4B5A802A4B9B88013B9AB211
:1017E000284B9A80274BDB88013B9AB2254BDA8045
:1017F000244B1B882F2B3CD8224B30221A80214BA4
:1018000030225A801F4B30229A801E4B3022DA80C1
:101810002FE01C4B1B8801339AB21A4B1A80194BCC
:101820005B8801339AB2174B5A80164B9B88013361
:101830009AB2144B9A80134BDB8801339AB2114B46
:10184000DA80104B1B88B3F5FA7F12D90D4B4FF499
:10185000FA721A800B4B4FF4FA725A80094B4FF40C
:10186000FA729A80074B4FF4FA72DA80074B012222
:101870001A700837BD4680BDB4030020B2030020B3
:10188000B80300200000002008000020B60300205C
:1018900080B584B000AF7860124B1B78002B1CD051
:1018A0007B681B681A46104B1A600023FB6011E02E
:1018B000FA681346DB001344DB000C4A1A440A4959
:1018C000FB6831F813301946104600F011F8FB6838
:1018D0000133FB60FB68002BEADD00BF1037BD461B
:1018E00080BD00BFB203002000000020B80300202C
:1018F00080B489B000AF78600B467B807B885B004A
:10190000FB830023BB61FB8B7B617B6800221A6039
:1019100001233B6109E0BA697B695340BB617B6984
:101920001B117B613B6901333B613B69032BF2DD9A
:10193000BB6903F00F03BB61FB8B1B011AB2BB69D0
:101940001BB213431BB2FB830023FB6011E0B7F90A
:101950001E30002B01DA0E2200E00722FB689B00FC
:1019600079680B441A60FB8B5B00FB83FB680133D7
:10197000FB60FB680F2BEADD7B68403300221A60B6
:101980007B68443300221A6000BF2437BD465DF8EF
:10199000047B704780B485B000AFF860B9607A60AE
:1019A000FA68BB689A4201DABB6806E0FA687B68AD
:1019B0009A4201DD7B6800E0FB6818461437BD469B
:1019C0005DF8047B7047000080B500AF0A4BDB7FF9
:1019D000002B0FD1084B0122DA77084B084A92E816
:1019E0000300186004331980064B1B68DBB21846ED
:1019F00000F004F900BF80BDD804002010050020CD
:101A0000380000204000002080B483B000AF0346BF
:101A1000FB71FA791B4913469B0013449B000B444E
:101A20000C331A68184B1B68013ADA62FA791549C7
:101A300013469B0013449B000B440C331B68013B73
:101A4000114AD360FA790F4913469B0013449B0057
:101A50000B440C331A680D4B1B68013ADA62FA79B1
:101A6000084913469B0013449B000B440C331B682E
:101A7000013B064AD36000BF0C37BD465DF8047BCE
:101A8000704700BF50000020540800209C08002030
:101A900080B483B000AF78603960084A7B685360D7
:101AA0003B681B685A1C3B681A60044B01221A737E
:101AB00000BF0C37BD465DF8047B7047FC04002076
:101AC00080B483B000AF7860054A7B681360044B34
:101AD00000221A7300BF0C37BD465DF8047B7047C7
:101AE000FC04002080B586B000AF7860384B9B794D
:101AF000022B69D0374B5B68364A1268114618468C
:101B000001F01CF90346334A9360314B1B791946A7
:101B1000314A0B469B000B449B0013440C331B685B
:101B20007B612C4B9B687A69B3FBF2F101FB02F2FB
:101B30009B1A284A9360274B9B683B617B69DA0FAD
:101B400013445B101A463B69D31AFB607B695B4206
:101B5000002B00DA03339B1019467B69002B00DA57
:101B600003339B101A46F868FFF714FFF860FB6810
:101B70000A2B03DCFB6813F10A0F18DAFB68174A1B
:101B800082FB0312DB17D21A7B6913445A1E144BD3
:101B90001B68DA62FB68114A82FB0312DB17D21A58
:101BA0007B691344013B1A460D4BDA6009E07B69FF
:101BB0005A1E0B4B1B68DA627B69013B1A46084BC5
:101BC000DA60044AFB68136100BF1837BD4680BD68
:101BD000D8040020FC040020500000205655555524
:101BE0005408002080B400AF034B1B691846BD4663
:101BF0005DF8047B704700BFFC04002080B584B012
:101C000000AF0346FB711A4800F07CFA194B002222
:101C1000DA71184B00221A77164B00229A77154B6F
:101C200000225A77134B02229A7101F075F8F8607E
:101C3000114AFB685360104AFB6813600E4B002288
:101C40001A730D4B00229A6000F034FB0346094AD8
:101C5000136001F039FA074B1968054B5A79FB7983
:101C6000184600F0CFF900BF1037BD4680BD00BF59
:101C700010050020D8040020FC04002080B588B0A6
:101C800000AF786039607B68FB61374A3B6813605E
:101C9000FB691B78C3F30103DBB2022B06D0022BD6
:101CA0005ADC002B2AD0012B38D055E03968F8696E
:101CB00000F0ACF80346FB76FB7E012B03D12B4AE8
:101CC0003B6813604BE0FB7E002B0BD1284B3B6144
:101CD0003869FEF7D5FA03469BB2194638690AF00F
:101CE0008DFC3CE0234B7B617869FEF7C9FA034623
:101CF0009BB2194678690AF081FC30E01E4B93F8DC
:101D00002030002B04D11C4BDB791846FFF7DCFC9C
:101D10001A4B7A681068516803C320E0164BDB7FCA
:101D2000002B1BD0FB695B78012B17D1FB699B78DB
:101D3000092B13D1FB690333FB60F86800F03CF812
:101D40000F4BBB60B868FEF79BFA03469BB219467F
:101D5000B8680AF053FC01E000BF00E000BF00BF1C
:101D60002037BD4680BD00BF34060020300600206D
:101D7000400A01084C0A0108D80400201805002078
:101D8000640A010880B483B000AF7860084B012278
:101D90009A71084A7B685360064A7B681360054B5A
:101DA00000229A6000BF0C37BD465DF8047B704787
:101DB000D8040020FC04002080B582B000AF786019
:101DC0007B681A780F4B9A707B685A780D4BDA70E3
:101DD0007B689A780B4B1A717B68DA78094B5A71D9
:101DE000094B0022DA77084B00221A7100F086F8BE
:101DF000054B1B791846FFF701FF00BF0837BD46AA
:101E000080BD00BF10050020D804002080B584B03C
:101E100000AF786039607B681A79344BDB789A427E
:101E200005D17B685A79314B1B799A4201D0002346
:101E300058E00023FB737B68DB78C3F30313DBB24A
:101E40001A462B4B1B791946104600F0ADFA034693
:101E50001A46274B5A71264B5A79254B1B799A42C1
:101E600005D00123FB73224B5A79214B1A717B68F1
:101E7000DB78C3F30003DBB2BB731D4B93F8203058
:101E8000BA7B9A4205D01A4ABB7B82F820300123E4
:101E9000FB73FB7B002B01D000F030F8144BDA7998
:101EA0007B689B789A4209D17B685A78114B1B78E2
:101EB0009A4203D10E4B9B79022B12D17B685B783F
:101EC0000D4A128893FBF2F101FB02F29B1ADAB27F
:101ED000084B1A707B689A78054BDA713868FFF7FF
:101EE00051FF012318461037BD4680BD1005002064
:101EF000D8040020200600202206002080B582B0F1
:101F000000AF104B1B783B700E4B5B787B700D4B1A
:101F10009B78BB700B4BDB78FB700A4B1B793B71DA
:101F2000084B5B797B71084B1B79BB71064B93F8AF
:101F30002030FB713B46184600F016FB00BF083707
:101F4000BD4680BD10050020D804002080B582B0B9
:101F500000AF022000F066FA00233B6000237B60A4
:101F60003B46184600F082FA3A781E4B1A707A788F
:101F70001C4B5A70BA781B4B9A70FA78194BDA706E
:101F80003A79184B1A717A79164B5A71164B01220D
:101F90001A71FA79144B83F82020124B1B78002B0E
:101FA00016D1104B5B78002B12D10E4B9B78002B77
:101FB0000ED10C4BDB78002B0AD10A4B1B79002B7E
:101FC00006D1084B5B79002B02D1FFF7FDFC05E041
:101FD000054B1B791846FFF711FE00BF00BF0837FD
:101FE000BD4680BD10050020D804002080B400AF9D
:101FF000034B9B681846BD465DF8047B704700BFE5
:10200000FC040020B0B58AB002AF03463960FB7112
:102010001346BB71184AFB791371174B1B7919468C
:10202000164A0B469B000B449B00134407F10C041B
:102030001D460FCD0FC42B6823600F4B03F108041E
:1020400007F10C050FCD0FC42B682360FB791846F0
:10205000FFF7DAFC787D397DBA7D7C7FBB7903F0B0
:102060000103DBB201933B680093234601F03EF885
:1020700000BF2037BD46B0BDD8040020500000206E
:1020800080B582B000AF164BDB790133DAB2144B66
:10209000DA71134BDB79124A127EB3FBF2F101FBCA
:1020A00002F29B1AFB710E4BDB7F002B12D1FB79E6
:1020B000002B0FD10A4B9B79022B0BD000F012F9A9
:1020C0000346074A1360064B1B68184601F0FEF8EA
:1020D000012300E0002318460837BD4680BD00BF3D
:1020E000D804002080B584B000AF7860044BFB605A
:1020F000F9687868FFF728FA00BF1037BD4680BD41
:102100001805002080B588B000AF78607B68023386
:102110001B781A067B6803331B781B041A447B6800
:1021200004331B781B0213447A6805321278134477
:1021300083F003031A46574B1A60574B1B78FB7604
:1021400001237B61FA7E7B699342B8BF13464FF44B
:10215000807292FBF3F39BB24F4A127813FB02F3A7
:102160009AB24E4B1A804C4B1B785B08DBB20133A2
:10217000DAB24B4B1A704B4B1A684B4B1B68D31A95
:102180001B02454A1278013A3A610122FA60F96865
:102190003A698A42B8BF0A46B3FBF2F3434A136076
:1021A0000023FB832FE0FB8B3B4A127893FBF2F179
:1021B00001FB02F29B1A002B05D1FB8B384A1178E8
:1021C0003B4AD1541CE0FB8B334A127893FBF2F16B
:1021D00001FB02F29B1A324A1278934204D1FB8B24
:1021E000334A0021D1540BE0FB8B2B4A127893FB2E
:1021F000F2F101FB02F29A1AFB8BD1B22C4AD154B4
:10220000FB8B0133FB83254B1B88FA8B9A42CAD385
:102210000023BB8333E0BB8B1F4A127893FBF2F1A0
:1022200001FB02F29B1A002B26D0BB8B1A4A1278B4
:1022300093FBF2F3DAB2184B1B7812FB03F3FB7239
:10224000154B1B78013BDBB2184600F07BF80346C8
:102250000133BB72BB8B164AD35C7B72FA7ABB7AB2
:102260001A44BB8B1249895C114AD154FA7ABB7A61
:1022700013440F497A7ACA54BB8B0133BB83074B93
:102280001B88BA8B9A42C6D300BF00BF2037BD4619
:1022900080BD00BF2C0600204C000020220600203C
:1022A00024060020480000204400002028060020CA
:1022B0002005002080B400AF074B1B781A46074B5F
:1022C0001B6802FB03F31A0A054B1B6813441846EC
:1022D000BD465DF8047B70472406002028060020D8
:1022E0004400002080B483B000AF114B1B78013351
:1022F000104A128893FBF2F101FB02F29B1ADAB248
:102300000B4B1A700A4B1B781A460B4B9B5C1A46F8
:102310000A4B1B6802FB03F31A0A094B1B681344A0
:102320007B607B6818460C37BD465DF8047B7047C0
:10233000200600202206002020050020280600207C
:102340004400002080B487B000AF0346FB714FF01B
:1023500000437B61114B3B61114BFB60114B1B68D0
:102360003A6903FB02F2FB6813447A69B3FBF2F2A9
:10237000796901FB02F29B1A0A4A1360094B1B6838
:102380001B0CFA79B3FBF2F101FB02F29B1ADBB2F0
:1023900018461C37BD465DF8047B7047FD430300BB
:1023A000C39E26002C06002080B483B000AF0346F5
:1023B0000A46FB711346BB71FB79092B2AD801A28F
:1023C00052F823F0ED230008F1230008F52300085C
:1023D000F9230008FD230008012400080524000853
:1023E000092400080D24000811240008BB7912E01C
:1023F000BB7910E0BB790EE0BB790CE000230AE06A
:10240000BB7908E0012306E0022304E0BB7902E087
:10241000032300E0BB7918460C37BD465DF8047B0A
:10242000704700BF80B584B000AF0346FB710C4A13
:10243000FB79137000F000F90A4B1B681B68FB6006
:10244000FB68B3F1FF3F03D000F012F9032303E070
:10245000054B1B681B68DBB218461037BD4680BDB4
:1024600038060020A4000020A000002080B489B01D
:1024700000AF7860384B1A68384B1B789B005B4282
:102480001344FB61364B1A68344B1B78C3F10103CC
:102490009B001344FA699A4208D9314B1A682F4BB2
:1024A0001B78C3F101039B001344FB612D4B1B6898
:1024B000FA699A421DD20023BB6114E000237B61BC
:1024C0000BE0BB699A007B6913441A467B6813448E
:1024D00000221A707B6901337B617B69032BF0DD7D
:1024E000BB690133BB611D4B1B781A46BB69934224
:1024F000E4DB00233B6121E03B699B00FA69134464
:102500001B68BB600023FB6012E0FB68C3F10303A0
:10251000DB00BA6822FA03F13B699A00FB681344B6
:102520001A467B681344CAB21A70FB680133FB6019
:10253000FB68032BE9DD3B6901333B61074B1B78EB
:102540001A463B699342D7DB00BF00BF2437BD4624
:102550005DF8047B704700BFA8000020380600200B
:10256000A4000020A0000020B0B584B000AF7860C7
:102570002D4B1A682D4B1B78C3F101039B001A44A5
:102580002B4B1B689A4205D22A4B1B68284A1360C2
:1025900000F06EF802F00AFA0023FB6030E0FB68FE
:1025A0009B001A467B6813441B781A06FB689B0045
:1025B000013379680B441B781B041A44FB689B00A9
:1025C000023379680B441B781B021344FA689200AB
:1025D000033279680A4412781344BB60144B1A68BA
:1025E000FB689B0013441946BB6800221C46154635
:1025F00022462B46022002F085F9FB680133FB607E
:102600000A4B1B781A46FB689342C8DB084B1A68D2
:10261000064B1B789B001344054A136002F0E8F94F
:1026200000BF1037BD46B0BDA40000203806002012
:10263000A8000020A000002080B483B000AF0A4BA7
:102640001B687B6002E07B6804337B607B681B68EF
:10265000DBB2FF2BF7D1054A7B68136000BF0C3754
:10266000BD465DF8047B7047A0000020A800002054
:1026700080B500AF02F09AF90221072002F008FBB2
:1026800002F0B6F900BF80BD80B58AB000AF07F197
:10269000140300221A605A609A60DA601A610023FB
:1026A0003B61654B1B6B644A43F004031363624B4D
:1026B0001B6B03F004033B613B690023FB605E4B33
:1026C0001B6B5D4A43F0800313635B4B1B6B03F092
:1026D0008003FB60FB680023BB60574B1B6B564AB3
:1026E00043F001031363544B1B6B03F00103BB6006
:1026F000BB6800237B60504B1B6B4F4A43F00203C7
:1027000013634D4B1B6B03F002037B607B6800225D
:102710004FF44041494802F087FC0022102148480C
:1027200002F082FC01224FF40041454802F07CFC9B
:1027300001224FF40071434802F076FC4FF400533D
:102740007B614FF48813BB610023FB6107F1140325
:1027500019463A4802F0E4FA4FF440437B61012302
:10276000BB610023FB6100233B6207F114031946A0
:10277000324802F0D5FA48F210037B610123BB61B5
:102780000023FB6100233B6207F1140319462C4828
:1027900002F0C6FA04237B614FF40413BB610023EB
:1027A000FB6107F114031946264802F0B9FA4FF409
:1027B00000537B610023BB610023FB6107F114031D
:1027C00019461F4802F0ACFA40237B614FF488138E
:1027D000BB610023FB6107F114031946194802F09D
:1027E0009FFA4FF400737B610123BB610023FB61FF
:1027F00000233B6207F114031946124802F090FAD5
:1028000000220421082001F0D6FC082001F0EFFC92
:1028100000220321172001F0CEFC172001F0E7FC75
:1028200000220021282001F0C6FC282001F0DFFC56
:1028300000BF2837BD4680BD003802400008024076
:10284000000002400004024080B500AFFEF772FCB9
:1028500000BF80BD80B500AF02490348FEF78CFB86
:1028600000BF80BD3C0600204806002080B582B035
:1028700000AF78607B68134A934202D1FEF744FFB1
:102880001BE07B68104A93420CD100F045FA0346E6
:102890000E491846FFF7FCF80020FFF723F9FFF771
:1028A000EFFB0AE07B680A4A934206D1094B1B689A
:1028B000002B02D00848FFF715FC00BF0837BD46C3
:1028C00080BD00BF0C0800205408002078060020BE
:1028D0009C0800207C0600206406002080B588B09B
:1028E00000AF0346FB80FB88402B02D1FFF7B2FF0D
:1028F00092E0FB88B3F5005F7CD1494B1B68013344
:10290000474A136000F008FA03461846FFF7D8F864
:10291000444A07F118031268114619800233120C59
:102920001A7000224FF400413F4802F07DFB07F18E
:1029300018010A2303223D4804F00BFB01224FF447
:102940000041394802F070FB00224FF40041364844
:1029500002F06AFB17237B6107F114010A230422AA
:10296000324804F0F6FA0A23042231492F4804F0D1
:1029700033FC01224FF400412B4802F055FB0022AA
:102980004FF40041284802F04FFB07F108030022F2
:102990001A605A60C3F807201B233B72244B1B7834
:1029A000103BDBB27B7207F1080101230B221F48A9
:1029B00004F0CFFA07F108010A230B221B4804F0A8
:1029C0000BFC01224FF40041174802F02DFB194B7C
:1029D0001A4607F1080393E8030082E8030000F0B9
:1029E0009BF9034619461348FFF748F9124B012299
:1029F0001A6011E0FB88042B0DD1104BFB61F869C4
:102A0000FDF73EFC03469BB21946F86909F0F6FD56
:102A1000FEF7DAFF00E000BF00BF2037BD4680BDF3
:102A200074060020780A010800000240D806002041
:102A300060060020580600207C060020700A01086D
:102A4000F0B58BB004AF3B1D00221A605A6001F054
:102A500041FA00F0ADF8FFF717FEFEF73DFD00F07C
:102A60008BFE00F0B1FD00F02FFE00F005FF09F035
:102A700007FD00F081F900F0B5F900F04BFF00F020
:102A800083FF01F08DFA38610C21394805F0B0F868
:102A9000384804F0FBFF384804F0F8FF374804F0EA
:102AA000F5FF374B32221A64364B00221A60FFF7CB
:102AB0004DFAFFF7C9FE344BDB68334A43F08073AD
:102AC000D360324B1B68314A43F0010313602F4B34
:102AD00000225A6001F064FAF8602D4B1B68FA6816
:102AE000D31AB3F57A7F28D9264B1C68294B9B88CB
:102AF0001E46FFF77BFA03461D46FFF773F80346B1
:102B00000393254B02930195244B00933346244AAB
:102B10002146244800F0B4F8234B1B78002B04D046
:102B20004FF40041214802F098FA4FF480411F48C9
:102B300002F093FA164AFB681360164B9B88A3F2C7
:102B4000DD33FB82FB8A0A2B03D9FB8AB3F5FA6FCC
:102B500001D90023FB82FB8ABB80FB8AFB80FB8AB6
:102B60003B81FB8A7B813B1D1846FEF791FEB1E756
:102B70007C070020540800200C0800209C0800203E
:102B80000004004074060020F0ED00E0001000E0BA
:102B90005406002064060020940A01089C0A0108DB
:102BA0007C0A0108880A01089C03002000080240F2
:102BB00080B594B000AF07F1200330220021184601
:102BC0000BF052F807F10C0300221A605A609A6069
:102BD000DA601A610023BB60274B1B6C264A43F066
:102BE00080531364244B1B6C03F08053BB60BB68A1
:102BF00000237B60214B1B68204A43F44043136051
:102C00001E4B1B6803F440437B607B6801233B62DF
:102C10004FF480337B620223BB634FF48003FB637A
:102C200008233B64C0237B640423BB640423FB644C
:102C300007F12003184603F093FC0346002B01D054
:102C400000F094F80F23FB6002233B6100237B61BB
:102C50004FF48053BB610023FB6107F10C0301219A
:102C6000184603F0F5FE0346002B01D000F07EF875
:102C700000BF5037BD4680BD0038024000700040A4
:102C800080B58EB008AFF860B9607A603B60FB6ACF
:102C90000693BB6A05937B6A04933B6A03933B6884
:102CA00002937B680193BB680093FB68194A00217B
:102CB00000200AF0CDFE78617B69023318460AF0E5
:102CC000EFF803463B617B6902331946FB6A0693C2
:102CD000BB6A05937B6A04933B6A03933B68029348
:102CE0007B680193BB680093FB680A4A38690AF065
:102CF000AFFE3869FDF7C4FA03469BB2194638693E
:102D000009F07CFC38690AF0D3F800BF1837BD46DB
:102D100080BD00BFDC0A010880B400AF054B5B68D2
:102D2000054AA2FB03235B091846BD465DF8047BF8
:102D3000704700BF001000E0ABAAAAAA80B483B01D
:102D400000AF786039607A683B689A4203D27A684B
:102D5000054B13447B607A683B68D31A18460C37DE
:102D6000BD465DF8047B70475555550580B400AFEE
:102D700072B600BF00BFFDE780B500AF174B184A21
:102D80001A60164B4FF482725A60144B00229A60FC
:102D9000124B0022DA60114B00221A610F4B002205
:102DA0005A610E4B4FF400729A610C4B2022DA618B
:102DB0000A4B00221A62094B00225A62074B00227A
:102DC0009A62064B0A22DA62044804F039F8034694
:102DD000002B01D0FFF7CAFF00BF80BD8006002096
:102DE0000030014080B500AF174B184A1A60164BEF
:102DF0004FF482725A60144B00229A60124B0022E8
:102E0000DA60114B00221A610F4B00225A610E4BFF
:102E10004FF400729A610C4B1022DA610A4B0022C7
:102E20001A62094B00225A62074B00229A62064B33
:102E30000A22DA62044804F003F80346002B01D0AA
:102E4000FFF794FF00BF80BDD8060020003C004083
:102E500080B58CB000AF786007F11C0300221A60C7
:102E60005A609A60DA601A617B681B68324A934242
:102E70002CD10023BB61314B5B6C304A43F480534F
:102E800053642E4B5B6C03F48053BB61BB6900231E
:102E90007B612A4B1B6B294A43F001031363274BC9
:102EA0001B6B03F001037B617B69E023FB61022361
:102EB0003B6200237B620323BB620523FB6207F1B5
:102EC0001C0319461E4801F02BFF30E07B681B688D
:102ED0001C4A93422BD100233B61184B1B6C174AB1
:102EE00043F400431364154B1B6C03F400433B6134
:102EF0003B690023FB60114B1B6B104A43F002033C
:102F000013630E4B1B6B03F00203FB60FB6838235B
:102F1000FB6102233B6200237B620323BB62062327
:102F2000FB6207F11C031946074801F0F9FE00BFD8
:102F30003037BD4680BD00BF003001400038024040
:102F400000000240003C00400004024080B483B016
:102F500000AF00237B60104B5B6C0F4A43F480434F
:102F600053640D4B5B6C03F480437B607B680023F0
:102F70003B60094B1B6C084A43F080531364064BBB
:102F80001B6C03F080533B603B6800BF0C37BD46B1
:102F90005DF8047B704700BF0038024080B400AF8A
:102FA00000BFFDE780B400AF00BFFDE780B400AF15
:102FB00000BFFDE780B400AF00BFFDE780B400AF05
:102FC00000BFFDE780B400AF00BFBD465DF8047BE5
:102FD000704780B400AF00BFBD465DF8047B70470A
:102FE00080B400AF00BFBD465DF8047B704780B57C
:102FF00000AF00F0C1FF00BF80BD80B500AF04206E
:1030000002F046F800BF80BD80B500AF024801F075
:103010000FFA00BF80BD00BF4409002080B500AF9B
:10302000024801F005FA00BF80BD00BFA4090020DE
:1030300080B500AF024801F0FBF900BF80BD00BFC2
:10304000E408002080B500AF402002F021F800BF66
:1030500080BD000080B500AF024805F029F800BF30
:1030600080BD00BF5408002080B500AF024805F0C5
:103070001FF800BF80BD00BF9C08002080B500AFD6
:103080004FF4005002F004F800BF80BD80B500AFDF
:10309000024801F0CDF900BF80BD00BF040A002046
:1030A00080B500AF024805F003F800BF80BD00BF47
:1030B0000C08002080B500AF024802F045F900BFBF
:1030C00080BD00BF681F002080B582B002AFFFF74F
:1030D000F1F803460122019200930C2307221821E4
:1030E000802000F003F800BFBD4680BD90B585B0DC
:1030F00002AF0446084611461A462346FB710346B2
:10310000BB710B467B7113463B7100F051F900F027
:10311000C0F800F0CCF8B86900F0D8F87A79B9793D
:10312000FB79184600F06AF83B7F002B08D038790D
:103130000023009300230822802100F035F807E0E7
:1031400038794023009300230822802100F02CF8D6
:1031500000F016F800F004F800BF0C37BD4690BD33
:1031600080B582B000AF054B7B603B1D0421184643
:1031700000F030F900BF0837BD4680BD8200FFFF78
:1031800080B584B000AF074A3B1D07CA03C31A705D
:103190003B1D0921184600F01DF900BF1037BD4640
:1031A00080BD00BFFC0A010890B585B000AF0446A1
:1031B000084611461A462346FB710346BB710B466F
:1031C0007B7113463B718C233B72FB797B72BB791D
:1031D000BB727B79FB723B793B7397F820307B7332
:1031E0000023BB730023FB7307F108030821184673
:1031F00000F0F0F800BF1437BD4690BD80B584B034
:1032000000AF0346FB710B46BB7113467B718B23EA
:103210003B72FB797B72BB79BB727B79FB7207F1E6
:1032200008030421184600F0D5F80023FB73FB794E
:10323000502B02D0FB79602B02D11E23FB730AE0D6
:10324000FB79702B02D0FB79802B02D13723FB73E3
:1032500001E03223FB73FB7B194640F6251000F09A
:1032600050F840F63C1000F06BF80346BB73BB7B94
:1032700023F00703BB73BB7B43F00103BB73BB7B32
:10328000194640F63C1000F03CF800BF1037BD4630
:1032900080BD80B582B000AF8023BB803B1D022182
:1032A000184600F097F800BF0837BD4680BD80B5CE
:1032B00082B000AF4FF4C573BB803B1D022118469E
:1032C00000F088F800BF0837BD4680BD80B584B0E7
:1032D00000AF78608623FB607B681B0CDBB27B73DE
:1032E0007B681B0ADBB2BB737B68DBB2FB7307F145
:1032F0000C030421184600F06DF800BF1037BD46DE
:1033000080BD80B584B000AF03460A46FB801346FB
:103310007B711823FB60FB881B0A9BB2DBB27B73BB
:10332000FB88DBB2BB737B79FB7307F10C030421D1
:10333000184600F04FF800BF1037BD4680BD0000B2
:1033400080B586B000AF0346FB8000233B610023BD
:103350003B751923BB6000233B73FB881B0A9BB2A0
:10336000DBB27B72FB88DBB2BB7200224FF4004100
:103370000D4801F059FE07F108010A2305220B4808
:1033800003F0E7FD07F110010A230522074803F0C7
:1033900023FF01224FF40041034801F045FE3B7D2D
:1033A00018461837BD4680BD00000240D8060020F0
:1033B00080B500AF40F69100FFF7C2FF034663F00F
:1033C0003F03DBB2194640F69100FFF79AFF00BFBA
:1033D00080BD000080B582B000AF78600B46FB7006
:1033E00000224FF400410A4801F01EFEFB789AB219
:1033F0000A237968074803F0ACFD01224FF400412D
:10340000034801F011FE00BF0837BD4680BD00BF74
:1034100000000240D806002080B400AF0123184607
:10342000BD465DF8047B704780B582B000AF786020
:1034300039600AF07BFC034616221A604FF0FF3316
:1034400018460837BD4680BD80B582B000AF7860B1
:103450004FF0FF317868FFF7E7FF00BFFDE780B569
:1034600086B000AFF860B9607A6000237B610AE043
:10347000AFF300800146BB685A1CBA60CAB21A702A
:103480007B6901337B617A697B689A42F0DB7B68F8
:1034900018461837BD4680BD80B586B000AFF860CD
:1034A000B9607A6000237B6109E0BB685A1CBA608E
:1034B0001B781846AFF300807B6901337B617A6922
:1034C0007B689A42F1DB7B6818461837BD4680BDA1
:1034D00080B483B000AF78604FF0FF3318460C37EC
:1034E000BD465DF8047B704780B483B000AF786060
:1034F00039603B684FF400525A60002318460C377D
:10350000BD465DF8047B704780B483B000AF78603F
:10351000012318460C37BD465DF8047B704780B424
:1035200085B000AFF860B9607A60002318461437A0
:10353000BD465DF8047B704780B586B000AF78600B
:10354000144A154BD31A7B617B693B61134B1B6893
:10355000002B02D1114B124A1A60104B1A687B687B
:1035600013443A699A4207D20AF0E0FB03460C2260
:103570001A604FF0FF3309E0084B1B68FB60074BF4
:103580001A687B681344054A1360FB6818461837AD
:10359000BD4680BD0000022000040000300700206E
:1035A000B827002080B400AF064BD3F88830054A16
:1035B00043F47003C2F8883000BFBD465DF8047B59
:1035C000704700BF00ED00E080B58EB000AF07F19E
:1035D000280300221A605A609A60DA6007F120031B
:1035E00000221A605A603B1D00221A605A609A60DD
:1035F000DA601A615A619A61324B4FF080421A6068
:10360000304B03225A602F4B00229A602D4B13221D
:10361000DA602C4B00221A612A4B80229A612948D9
:1036200004F0E4F90346002B01D0FFF79FFB4FF4B1
:103630008053BB6207F128031946224804F0EAFED2
:103640000346002B01D0FFF791FB1E4804F080FADF
:103650000346002B01D0FFF789FB00233B620023C8
:103660007B6207F120031946164805F07FFB0346ED
:10367000002B01D0FFF77AFB60237B600023BB6047
:103680000023FB6000237B613B1D002219460D488F
:1036900004F0FEFD0346002B01D0FFF767FB3B1D46
:1036A00008221946074804F0F3FD0346002B01D019
:1036B000FFF75CFB034800F03DFB00BF3837BD4619
:1036C00080BD00BF3407002080B58AB000AF07F18D
:1036D000200300221A605A603B1D00221A605A60C3
:1036E0009A60DA601A615A619A61214B214A1A6024
:1036F0001F4B2F225A601E4B00229A601C4B6422E3
:10370000DA601B4B00221A61194B00229A6118489B
:1037100004F01EFA0346002B01D0FFF727FB00231D
:103720003B6200237B6207F120031946104805F035
:103730001DFB0346002B01D0FFF718FB60237B60C5
:103740000023BB600023FB6000237B613B1D0C2238
:103750001946074804F09CFD0346002B01D0FFF7F3
:1037600005FB034800F0E6FA00BF2837BD4680BDE0
:103770007C0700200004004080B58EB000AF07F148
:10378000280300221A605A609A60DA6007F1200369
:1037900000221A605A603B1D00221A605A609A602B
:1037A000DA601A615A619A61314B324A1A60304BC1
:1037B00003225A602E4B00229A602D4B1322DA60AE
:1037C0002B4B00221A612A4B80229A61284804F070
:1037D0000DF90346002B01D0FFF7C8FA4FF48053D0
:1037E000BB6207F128031946214804F013FE034683
:1037F000002B01D0FFF7BAFA1D4804F0A9F90346DF
:10380000002B01D0FFF7B2FA00233B6200237B625A
:1038100007F120031946164805F0A8FA0346002BC5
:1038200001D0FFF7A3FA60237B600023BB60002375
:10383000FB6000237B613B1D042219460C4804F009
:1038400027FD0346002B01D0FFF790FA3B1D08220D
:103850001946074804F01CFD0346002B01D0FFF772
:1038600085FA034800F066FA00BF3837BD4680BDD0
:10387000C40700200008004080B586B000AF07F103
:10388000080300221A605A609A60DA603B46002200
:103890001A605A601D4B1E4A1A601C4B45F6BF52F7
:1038A0005A601A4B00229A60184B0122DA60174BBB
:1038B00000221A61154B80229A61144804F096F890
:1038C0000346002B01D0FFF751FA4FF48053BB6041
:1038D00007F1080319460D4804F09CFD0346002B30
:1038E00001D0FFF743FA20233B6000237B603B4677
:1038F0001946064805F03AFA0346002B01D0FFF7B7
:1039000035FA00BF1837BD4680BD00BF0C08002047
:10391000000C004080B584B000AF3B4600221A6026
:103920005A609A60DA60164B164A1A60144B2F22BE
:103930005A60134B00229A60114B41F60922DA605B
:103940000F4B00221A610E4B80229A610C4804F042
:103950004DF80346002B01D0FFF708FA4FF48053CF
:103960003B603B461946064804F054FD0346002BD5
:1039700001D0FFF7FBF900BF1037BD4680BD00BF87
:10398000540800200040014080B500AF0E4B0F4AA4
:103990001A600D4BBD225A600B4B00229A600A4BF5
:1039A00041F60922DA60084B00221A61064B802298
:1039B0009A61054804F01AF80346002B01D0FFF77E
:1039C000D5F900BF80BD00BF9C0800200044014025
:1039D00080B588B000AF78607B681B68B3F1804F1A
:1039E00040F089800023FB61954B1B6C944A43F0A7
:1039F00001031364924B1B6C03F00103FB61FB6931
:103A0000904B914A1A608F4B4FF0C0625A608D4BB9
:103A100040229A608B4B0022DA608A4B4FF480621E
:103A20001A61884B4FF480525A61864B4FF48042A2
:103A30009A61844B0022DA61824B4FF400321A62A1
:103A4000804B04225A627F4B00229A627D4B0022F7
:103A5000DA627C4B00221A637A4800F0E3FB0346EB
:103A6000002B01D0FFF782F97B68764A5A62754ACB
:103A70007B689363754B764A1A60744B4FF0C06253
:103A80005A60724B40229A60704B0022DA606F4B92
:103A90004FF480621A616D4B4FF480525A616B4B48
:103AA0004FF480429A61694B0022DA61674B4FF410
:103AB00000321A62654B04225A62644B00229A62F9
:103AC000624B0022DA62614B00221A635F4800F009
:103AD000A9FB0346002B01D0FFF748F97B685B4A3E
:103AE000DA625A4A7B6893637B68584A1A62574A7B
:103AF0007B689363F1E07B681B68564A934240F011
:103B000083800023BB614E4B1B6C4D4A43F0040382
:103B100013644B4B1B6C03F00403BB61BB694E4B3E
:103B20004E4A1A604C4B4FF080625A604A4B40221A
:103B30009A60494B0022DA60474B4FF480621A6169
:103B4000454B4FF480525A61434B4FF480429A6187
:103B5000414B0022DA61404B4FF400321A623E4B77
:103B600004225A623C4B00229A623B4B0022DA62EA
:103B7000394B00221A63384800F054FB0346002BEF
:103B800001D0FFF7F3F87B68334A9A62324A7B68C8
:103B90009363334B334A1A60314B4FF080625A6063
:103BA0002F4B40229A602E4B0022DA602C4B4FF4B0
:103BB00080621A612A4B4FF480525A61284B4FF4AD
:103BC00080429A61264B0022DA61254B4FF4003285
:103BD0001A62234B04225A62214B00229A62204B24
:103BE0000022DA621E4B00221A631D4800F01AFB05
:103BF0000346002B01D0FFF7B9F87B68184ADA6258
:103C0000174A7B68936368E07B681B68164A934297
:103C10002CD100237B610A4B1B6C094A43F008033B
:103C20001364074B1B6C03F008037B617B69002264
:103C30000221322000F0BFFA322000F0D8FA4CE026
:103C400000380240E4080020886002404409002057
:103C50002860024000080040A4090020586002408B
:103C6000040A0020B8600240000C00407B681B681A
:103C70001C4A934216D100233B611B4B5B6C1A4AD2
:103C800043F480335364184B5B6C03F480333B6123
:103C90003B6900220021182000F08DFA182000F066
:103CA000A6FA1AE07B681B68104A934215D10023DC
:103CB000FB600D4B5B6C0C4A43F4003353640A4BBE
:103CC0005B6C03F40033FB60FB68002201211920C8
:103CD00000F071FA192000F08AFA00BF2037BD46C3
:103CE00080BD00BF00400140003802400044014058
:103CF00080B485B000AF78607B681B680B4A934244
:103D00000DD10023FB600A4B1B6C094A43F00203F0
:103D10001364074B1B6C03F00203FB60FB6800BFDE
:103D20001437BD465DF8047B704700BF00040040B7
:103D30000038024080B58CB000AF786007F11C03FA
:103D400000221A605A609A60DA601A617B681B6808
:103D5000B3F1804F3DD10023BB61444B1B6B434A01
:103D600043F001031363414B1B6B03F00103BB6181
:103D7000BB6900237B613D4B1B6B3C4A43F0020354
:103D800013633A4B1B6B03F002037B617B690123D6
:103D9000FB6102233B6200237B620023BB620123A1
:103DA000FB6207F11C031946314800F0B9FF4FF4DC
:103DB0008063FB6102233B6200237B620023BB62C2
:103DC0000123FB6207F11C0319462A4800F0A8FFF3
:103DD00047E07B681B68284A93421ED100233B6161
:103DE000224B1B6B214A43F0020313631F4B1B6BD7
:103DF00003F002033B613B690223FB6102233B6248
:103E000000237B620023BB620223FB6207F11C03D9
:103E10001946184800F084FF23E07B681B68174AA6
:103E200093421ED10023FB60104B1B6B0F4A43F0E3
:103E3000020313630D4B1B6B03F00203FB60FB6873
:103E40004FF4C073FB6102233B6200237B620023BB
:103E5000BB620223FB6207F11C031946054800F010
:103E60005FFF00BF3037BD4680BD00BF0038024055
:103E7000000002400004024000040040000800402E
:103E8000DFF834D0FFF78EFB0C480D490D4A0023B4
:103E900002E0D458C4500433C4188C42F9D30A4AFF
:103EA0000A4C002301E013600432A242FBD309F064
:103EB00043FFFEF7C5FD7047000002200000002010
:103EC00080030020202F010880030020B827002055
:103ED000FEE7000080B500AF0E4B1B680D4A43F4AF
:103EE000007313600B4B1B680A4A43F48063136032
:103EF000084B1B68074A43F480731360032000F0EB
:103F00004FF90F2000F008F8FFF720F800231846BB
:103F100080BD00BF003C024080B582B000AF786039
:103F2000124B1A68124B1B7819464FF47A73B3FB85
:103F3000F1F3B2FBF3F3184600F067F90346002BE8
:103F400001D001230EE07B680F2B0AD8002279688C
:103F50004FF0FF3000F02FF9064A7B681360002312
:103F600000E0012318460837BD4680BDAC000020A4
:103F7000B4000020B000002080B400AF064B1B78D6
:103F80001A46064B1B681344044A136000BFBD4623
:103F90005DF8047B704700BFB4000020640A002075
:103FA00080B400AF034B1B681846BD465DF8047B28
:103FB000704700BF640A002080B584B000AF78600D
:103FC000FFF7EEFFB8607B68FB60FB68B3F1FF3F73
:103FD00005D00A4B1B781A46FB681344FB6000BFF0
:103FE000FFF7DEFF0246BB68D31AFA689A42F7D899
:103FF00000BF00BF1037BD4680BD00BFB400002029
:1040000080B485B000AF78607B6803F00703FB6085
:104010000C4BDB68BB60BA684FF6FF031340BB6014
:10402000FB681A02BB68134343F0BF6343F40033D9
:10403000BB60044ABB68D36000BF1437BD465DF85F
:10404000047B704700ED00E080B400AF044BDB68F8
:104050001B0A03F007031846BD465DF8047B704752
:1040600000ED00E080B483B000AF0346FB7197F928
:104070000730002B0BDBFB7903F01F02074997F990
:1040800007305B09012000FA02F241F8232000BF4B
:104090000C37BD465DF8047B704700BF00E100E0CF
:1040A00080B483B000AF03463960FB7197F90730E5
:1040B000002B0ADB3B68DAB20C4997F90730120192
:1040C000D2B20B4483F800230AE03B68DAB2084915
:1040D000FB7903F00F03043B1201D2B20B441A76B2
:1040E00000BF0C37BD465DF8047B704700E100E07F
:1040F00000ED00E080B489B000AFF860B9607A608C
:10410000FB6803F00703FB61FB69C3F10703042BA2
:1041100028BF0423BB61FB690433062B02D9FB696A
:10412000033B00E000237B614FF0FF32BB6902FAE2
:1041300003F3DA43BB681A407B699A404FF0FF31C2
:104140007B6901FA03F3D9437B680B40134318469C
:104150002437BD465DF8047B7047000080B582B00F
:1041600000AF78607B68013BB3F1807F01D301230E
:104170000FE00A4A7B68013B53600F214FF0FF308C
:10418000FFF78EFF054B00229A60044B07221A604E
:10419000002318460837BD4680BD00BF10E000E090
:1041A00080B582B000AF78607868FFF729FF00BF64
:1041B0000837BD4680BD80B586B000AF0346B96004
:1041C0007A60FB7300237B61FFF73EFF78617A68BA
:1041D000B9687869FFF78EFF024697F90F301146EC
:1041E0001846FFF75DFF00BF1837BD4680BD80B59C
:1041F00082B000AF0346FB7197F907301846FFF70E
:1042000031FF00BF0837BD4680BD80B582B000AF2A
:1042100078607868FFF7A2FF034618460837BD4666
:1042200080BD000080B586B000AF786000237B6160
:10423000FFF7B6FE38617B68002B01D1012399E0BE
:104240007B68022283F835207B68002283F83420C3
:104250007B681B681A687B681B6822F001021A6081
:104260000FE0FFF79DFE02463B69D31A052B08D9E4
:104270007B6820225A657B68032283F8352003235C
:1042800078E07B681B681B6803F00103002BE8D112
:104290007B681B681B687B617A69384B13407B61C4
:1042A0007B685A687B689B681A437B68DB681A43A3
:1042B0007B681B691A437B685B691A437B689B694F
:1042C0001A437B68DB691A437B681B6A13437A696C
:1042D00013437B617B685B6A042B07D17B68DA6AD6
:1042E0007B681B6B13437A6913437B617B681B6894
:1042F0007A691A607B681B685B697B617B6923F064
:1043000007037B617B685B6A7A6913437B617B6827
:104310005B6A042B17D17B689B6A7A6913437B61C4
:104320007B68DB6A002B0ED0786800F06FFA0346DA
:10433000002B08D07B6840225A657B68012283F8F5
:104340003520012316E07B681B687A695A6178681A
:1043500000F026FA0346FB607B68DB6D3F229A4043
:10436000FB689A607B6800225A657B68012283F8AB
:104370003520002318461837BD4680BD3F8010F019
:1043800080B586B000AFF860B9607A603B6000230A
:10439000FB75FB689B6D3B61FB6893F83430012B28
:1043A00001D1022340E0FB68012283F83420FB683E
:1043B00093F83530DBB2012B2FD1FB68022283F852
:1043C0003520FB6800225A653B687A68B968F8684E
:1043D00000F0B8F9FB68DB6D3F229A403B699A60B8
:1043E000FB681B681A68FB681B6842F016021A60BB
:1043F000FB681B6C002B07D0FB681B681A68FB6806
:104400001B6842F008021A60FB681B681A68FB68A8
:104410001B6842F001021A6005E0FB68002283F885
:1044200034200223FB75FB7D18461837BD4680BD3E
:1044300080B586B000AF78600023BB608E4B1B68F0
:104440008E4AA2FB03239B0A7B617B689B6D3B61C9
:104450003B691B68FB607B68DB6D08229A40FB6848
:104460001340002B1AD07B681B681B6803F0040301
:10447000002B13D07B681B681A687B681B6822F0CE
:1044800004021A607B68DB6D08229A403B699A60DF
:104490007B685B6D43F001027B685A657B68DB6D6E
:1044A00001229A40FB681340002B12D07B681B68E6
:1044B0005B6903F08003002B0BD07B68DB6D01226E
:1044C0009A403B699A607B685B6D43F002027B68AF
:1044D0005A657B68DB6D04229A40FB681340002B11
:1044E00012D07B681B681B6803F00203002B0BD003
:1044F0007B68DB6D04229A403B699A607B685B6D48
:1045000043F004027B685A657B68DB6D10229A4099
:10451000FB681340002B43D07B681B681B6803F0CB
:104520000803002B3CD07B68DB6D10229A403B696E
:104530009A607B681B681B6803F48023002B18D0EB
:104540007B681B681B6803F40023002B08D17B6881
:104550001B6C002B24D07B681B6C786898471FE08D
:104560007B689B6C002B1BD07B689B6C78689847A2
:1045700016E07B681B681B6803F48073002B07D16F
:104580007B681B681A687B681B6822F008021A6047
:104590007B681B6C002B03D07B681B6C786898478A
:1045A0007B68DB6D20229A40FB681340002B00F0F3
:1045B0008F807B681B681B6803F01003002B00F0E2
:1045C00087807B68DB6D20229A403B699A607B681C
:1045D00093F83530DBB2052B36D17B681B681A683F
:1045E0007B681B6822F016021A607B681B685A6998
:1045F0007B681B6822F080025A617B681B6C002B71
:1046000003D17B689B6C002B07D07B681B681A6802
:104610007B681B6822F008021A607B68DB6D3F2212
:104620009A403B699A607B68012283F835207B6859
:10463000002283F834207B681B6D002B7ED07B68C2
:104640001B6D7868984779E07B681B681B6803F4EA
:104650008023002B1DD07B681B681B6803F400239C
:10466000002B0DD17B685B6C002B31D07B685B6CC1
:10467000786898472CE000BFAC000020B5814E1B45
:104680007B68DB6B002B23D07B68DB6B78689847FB
:104690001EE07B681B681B6803F48073002B0FD13E
:1046A0007B681B681A687B681B6822F010021A601E
:1046B0007B68012283F835207B68002283F8342050
:1046C0007B68DB6B002B03D07B68DB6B78689847DB
:1046D0007B685B6D002B32D07B685B6D03F0010360
:1046E000002B22D07B68052283F835207B681B686D
:1046F0001A687B681B6822F001021A60BB680133EC
:10470000BB607A699A4207D37B681B681B6803F019
:104710000103002BF2D100E000BF7B68012283F887
:1047200035207B68002283F834207B68DB6C002B0B
:1047300005D07B68DB6C7868984700E000BF1837CD
:10474000BD4680BD80B485B000AFF860B9607A60C6
:104750003B60FB681B681A68FB681B6822F48022B8
:104760001A60FB681B683A685A60FB689B68402BBC
:1047700008D1FB681B687A689A60FB681B68BA6896
:10478000DA6007E0FB681B68BA689A60FB681B6820
:104790007A68DA6000BF1437BD465DF8047B704765
:1047A00080B485B000AF78607B681B68DBB2103BDB
:1047B000144AA2FB03231B09FB60134AFB68134442
:1047C0001B781A467B68DA65FB68032B09D97B687E
:1047D0001B6823F47F7323F003031A1D7B689A651B
:1047E00007E07B681B6823F47F7323F003037A6878
:1047F00093657B689B6D18461437BD465DF8047B56
:10480000704700BFABAAAAAA642B010880B485B088
:1048100000AF78600023FB737B689B6ABB607B689A
:104820009B69002B1FD1BB68032B56D801A252F8FD
:1048300023F000BF454800085748000845480008D5
:10484000DB4800087B68DB6A03F08073002B46D0EE
:104850000123FB7343E07B68DB6AB3F1C07F40D187
:104860000123FB733DE07B689B69B3F5005F21D1B9
:10487000BB68032B37D801A252F823F08D480008FB
:10488000934800088D480008A54800080123FB73E1
:1048900030E07B68DB6A03F08073002B25D00123B6
:1048A000FB7322E07B68DB6AB3F1C07F1FD1012379
:1048B000FB731CE0BB68022B03D9BB68032B03D03E
:1048C00018E00123FB7315E07B68DB6A03F080735B
:1048D000002B0ED00123FB730BE000BF0AE000BFEA
:1048E00008E000BF06E000BF04E000BF02E000BF38
:1048F00000E000BFFB7B18461437BD465DF8047B23
:10490000704700BF80B586B000AFF860B960C7E9F6
:1049100000230123FB75234B1B7E012B01D10223B6
:104920003BE0204B01221A764CF2503000F070F838
:104930000346FB75FB7D002B2BD1FB68002B05D1BB
:104940003B781946B86800F01BF916E0FB68012BAC
:1049500005D13B881946B86800F0EEF80DE0FB6819
:10496000022B05D13B681946B86800F0C3F804E093
:10497000D7E90023B86800F08BF84CF2503000F013
:1049800047F80346FB75084B1B69074A23F00103F0
:104990001361044B00221A76FB7D18461837BD467A
:1049A00080BD00BF680A0020003C024080B483B094
:1049B00000AF0023FB710B4B1B69002B0BDA094B7B
:1049C000094A5A60074B094A5A60064B1B69002B7B
:1049D00001DA0123FB71FB7918460C37BD465DF8FF
:1049E000047B7047003C024023016745AB89EFCD53
:1049F00080B400AF054B1B69044A43F000431361C8
:104A000000231846BD465DF8047B7047003C024019
:104A100080B584B000AF78600023FB601A4B0022A1
:104A2000DA61FFF7BDFAF86010E07B68B3F1FF3F91
:104A30000CD07B68002B07D0FFF7B2FA0246FB6868
:104A4000D31A7A689A4201D2032319E00F4BDB682C
:104A500003F48033002BE8D10C4BDB6803F0010337
:104A6000002B02D0094B0122DA60084BDB6803F40B
:104A7000F973002B03D000F0A5F8012300E0002318
:104A800018461037BD4680BD680A0020003C024031
:104A900080B485B000AFF860C7E90023144B1B69F0
:104AA000134A23F440731361114B1B69104A43F4FA
:104AB000407313610E4B1B690D4A43F001031361F0
:104AC000FB683A681A60BFF36F8F00BFD7E9000137
:104AD0004FF000024FF000030A000023F968043190
:104AE00013460B6000BF1437BD465DF8047B70476A
:104AF000003C024080B483B000AF786039600D4B59
:104B00001B690C4A23F4407313610A4B1B69094A61
:104B100043F400731361074B1B69064A43F001031A
:104B200013617B683A681A6000BF0C37BD465DF8B8
:104B3000047B7047003C024080B483B000AF7860D3
:104B40000B467B800D4B1B690C4A23F440731361A9
:104B50000A4B1B69094A43F480731361074B1B69B5
:104B6000064A43F0010313617B687A881A8000BF0C
:104B70000C37BD465DF8047B704700BF003C024027
:104B800080B483B000AF78600B46FB700C4B1B69A0
:104B90000B4A23F440731361094B094A1B691361E3
:104BA000074B1B69064A43F0010313617B68FA78DF
:104BB0001A7000BF0C37BD465DF8047B704700BF1C
:104BC000003C024080B400AF2F4BDB6803F01003C1
:104BD000002B08D02D4BDB6943F010032B4AD36127
:104BE000294B1022DA60284BDB6803F02003002BEE
:104BF00008D0264BDB6943F00803244AD361224BDB
:104C00002022DA60204BDB6803F04003002B08D041
:104C10001E4BDB6943F004031C4AD3611A4B40224C
:104C2000DA60194BDB6803F08003002B08D0174BC8
:104C3000DB6943F00203154AD361134B8022DA602B
:104C4000114BDB6803F48073002B09D00F4BDB6939
:104C500043F001030D4AD3610B4B4FF48072DA60CD
:104C6000094BDB6803F00203002B08D0074BDB691C
:104C700043F02003054AD361034B0222DA6000BFF0
:104C8000BD465DF8047B7047003C0240680A002086
:104C900080B485B000AF78600B46FB700023FB60EA
:104CA000FB78002B02D10023FB6010E0FB78012B86
:104CB00003D14FF48073FB6009E0FB78022B03D132
:104CC0004FF40073FB6002E04FF44073FB60134B42
:104CD0001B69124A23F440731361104B1A690F4980
:104CE000FB6813430B610D4B1B690C4A23F0F8035F
:104CF00013610A4B1A697B68DB001343074A43F0D0
:104D000002031361054B1B69044A43F480331361AA
:104D100000BF1437BD465DF8047B7047003C02407D
:104D200080B489B000AF7860396000237B610023D4
:104D30003B610023BB610023FB6159E10122FB6958
:104D400002FA03F37B613B681B687A6913403B619D
:104D50003A697B699A4240F048813B685B6803F09E
:104D60000303012B05D03B685B6803F00303022BB0
:104D700030D17B689B68BB61FB695B00032202FA50
:104D800003F3DB43BA691340BB613B68DA68FB6934
:104D90005B0002FA03F3BA691343BB617B68BA692B
:104DA0009A607B685B68BB610122FB6902FA03F3CE
:104DB000DB43BA691340BB613B685B681B0903F0C6
:104DC0000102FB6902FA03F3BA691343BB617B6812
:104DD000BA695A603B685B6803F00303032B17D082
:104DE0007B68DB68BB61FB695B00032202FA03F3AB
:104DF000DB43BA691340BB613B689A68FB695B009F
:104E000002FA03F3BA691343BB617B68BA69DA60DB
:104E10003B685B6803F00303022B23D1FB69DA08CC
:104E20007B68083253F82230BB61FB6903F007034B
:104E30009B000F2202FA03F3DB43BA691340BB6104
:104E40003B681A69FB6903F007039B0002FA03F34E
:104E5000BA691343BB61FB69DA087B680832B96938
:104E600043F822107B681B68BB61FB695B0003226F
:104E700002FA03F3DB43BA691340BB613B685B682A
:104E800003F00302FB695B0002FA03F3BA69134300
:104E9000BB617B68BA691A603B685B6803F44033A6
:104EA000002B00F0A2800023FB60574B5B6C564A3E
:104EB00043F480435364544B5B6C03F48043FB60C6
:104EC000FB68524AFB699B08023352F82330BB61EE
:104ED000FB6903F003039B000F2202FA03F3DB4399
:104EE000BA691340BB617B68494A934219D07B6819
:104EF000484A934213D07B68474A93420DD07B685F
:104F0000464A934207D07B68454A934201D1042325
:104F100008E0072306E0032304E0022302E0012364
:104F200000E00023FA6902F0030292009340BA699C
:104F30001343BB613549FB699B080233BA6941F8E9
:104F40002320384B9B68BB613B69DB43BA69134044
:104F5000BB613B685B6803F48013002B03D0BA6924
:104F60003B691343BB612F4ABB6993602D4BDB68E0
:104F7000BB613B69DB43BA691340BB613B685B685B
:104F800003F40013002B03D0BA693B691343BB61E0
:104F9000244ABB69D360234B5B68BB613B69DB433D
:104FA000BA691340BB613B685B6803F40033002BB4
:104FB00003D0BA693B691343BB611A4ABB695360AA
:104FC000184B1B68BB613B69DB43BA691340BB618B
:104FD0003B685B6803F48033002B03D0BA693B69FC
:104FE0001343BB610F4ABB691360FB690133FB616B
:104FF000FB690F2B7FF6A2AE00BF00BF2437BD4672
:105000005DF8047B704700BF003802400038014063
:10501000000002400004024000080240000C024070
:1050200000100240003C014080B483B000AF7860C3
:105030000B467B8013467B707B78002B03D07A88ED
:105040007B689A6103E07B881A047B689A6100BFE1
:105050000C37BD465DF8047B704780B485B000AF67
:1050600078600B467B807B685B69FB607A88FB68B5
:1050700013401A04FB68D9437B880B401A437B68B2
:105080009A6100BF1437BD465DF8047B704700008D
:1050900080B582B000AF0346FB80084B5A69FB889D
:1050A0001340002B06D0054AFB885361FB88184645
:1050B000FDF714FC00BF0837BD4680BD003C014031
:1050C00080B586B002AF78607B68002B01D10123E8
:1050D00001E17B681B68BB607B6893F89534DBB2A9
:1050E000002B06D17B68002283F89424786807F0AF
:1050F000CDFB7B68032283F89524BB68B3F1A04FF6
:1051000002D17B6800229A717B681B68184603F005
:10511000C6FF7B6818687B681A7C8DF80020043312
:105120000ECB03F0A5FE0346002B05D07B680222C0
:1051300083F895240123CEE07B681B680021184684
:1051400003F0BEFF0346002B05D07B68022283F8E4
:1051500095240123BFE00023FB734AE0FA7B7968C2
:105160001346DB0013449B000B44153301221A70D5
:10517000FA7B79681346DB0013449B000B4414331D
:10518000FA7B1A70FA7BFB7B98B279681346DB00D6
:1051900013449B000B442E3302461A80FA7B796835
:1051A0001346DB0013449B000B44183300221A7093
:1051B000FA7B79681346DB0013449B000B441C33D5
:1051C00000221A60FA7B79681346DB0013449B00C7
:1051D0000B44203300221A60FA7B79681346DB0007
:1051E00013449B000B44243300221A60FB7B0133E1
:1051F000FB737B681B79FA7B9A42AFD30023FB7366
:1052000044E0FA7B79681346DB0013449B000B44AF
:1052100003F2552300221A70FA7B79681346DB00EB
:1052200013449B000B4403F51573FA7B1A70FA7B49
:1052300079681346DB0013449B000B4403F5167397
:1052400000221A70FA7B79681346DB0013449B0036
:105250000B4403F5177300221A60FA7B7968134632
:10526000DB0013449B000B4403F5187300221A6003
:10527000FA7B79681346DB0013449B000B4403F56B
:10528000197300221A60FB7B0133FB737B681B7967
:10529000FA7B9A42B5D37B6818687B681A7C8DF8D4
:1052A000002004330ECB03F057FF0346002B05D03C
:1052B0007B68022283F8952401230CE07B6800229E
:1052C0005A747B68012283F895247B681B68184612
:1052D00004F09BFF002318461037BD4680BD80B503
:1052E00084B000AF78607B681B68FB607B6893F8D4
:1052F0009434012B01D1022322E07B68012283F840
:105300009424FB68DB6803F04003002B09D07B6822
:105310005B7B012B05D1FB689B6B43F48032FB6800
:105320009A637B681B68184603F0A8FE7B681B68BD
:10533000184604F049FF7B68002283F89424002378
:1053400018461037BD4680BD90B58DB000AF78606F
:105350007B681B683B623B6AFB617B681B68184685
:1053600005F007F80346002B40F08C847B681B682F
:10537000184604F06BFF0346002B00F08284FB69A3
:1053800003F500639B681B0AC3F30D027B68C3F837
:10539000D4247B681B68184604F058FF034603F0CA
:1053A0000203022B07D17B681B685A697B681B6864
:1053B00002F002025A617B681B68184604F046FF3F
:1053C000034603F01003102B61D17B681B689A69B8
:1053D0007B681B6822F010029A613B6A1B6ABB6102
:1053E000BB6903F00F021346DB0013449B0003F577
:1053F00014737A68134404337B61BB695B0C03F05C
:105400000F03022B24D1BA6947F6F0731340002B27
:1054100035D07B69D968BB691B099BB2C3F30A030A
:105420009BB21A46386A04F07DFD7B69DA68BB6975
:105430001B09C3F30A031A447B69DA607B695A6962
:10544000BB691B09C3F30A031A447B695A6116E05E
:10545000BB695B0C03F00F03062B10D17B6803F2D2
:105460009C4308221946386A04F05CFD7B695A693E
:10547000BB691B09C3F30A031A447B695A617B6841
:105480001B689A697B681B6842F010029A617B680E
:105490001B68184604F0DAFE034603F40023B3F554
:1054A000002F40F0A78000237B627B681B681846B2
:1054B00004F0DFFEB86299E0BB6A03F00103002B41
:1054C00000F08E807B681B687A6AD2B2114618465B
:1054D00004F003FF38613B6903F00103002B0CD09B
:1054E0007B6A5A01FB69134403F530631A460123B2
:1054F0009360796A786800F0A1FE3B6903F00803C5
:10550000002B0CD07B6A5A01FB69134403F530630E
:105510001A4608239360796A786800F077FF3B6940
:1055200003F01003002B08D07B6A5A01FB69134477
:1055300003F530631A46102393603B6903F00203BE
:10554000002B30D03B6A5B6903F08003802B09D1CC
:10555000FB6903F500635B68FA6902F5006243F4D6
:10556000806353607A6A1346DB0013449B0003F5A3
:1055700014737A68134404337B617B69DB78012BF5
:1055800008D17B690022DA707B6ADBB21946786841
:1055900007F078FA7B6A5A01FB69134403F530631C
:1055A0001A46022393603B6903F02003002B08D0C6
:1055B0007B6A5A01FB69134403F530631A462023C2
:1055C00093603B6903F40053002B09D07B6A5A01B6
:1055D000FB69134403F530631A464FF4005393609C
:1055E0007B6A01337B62BB6A5B08BB62BB6A002BD0
:1055F0007FF462AF7B681B68184604F027FE034601
:1056000003F48023B3F5802F40F0DB807B681B68B8
:10561000184604F048FEB86200237B62CDE0BB6A06
:1056200003F00103002B00F0C2807B681B687A6ADC
:10563000D2B21146184604F06EFE38613B6903F0A1
:105640000103002B57D07B6A03F00F03012202FAFB
:1056500003F3FB60FB6903F500635A6BFB68DB43F4
:10566000F96901F5006113404B637B6A5A01FB69DC
:10567000134403F510631A46012393607B689B79FA
:10568000012B32D179687A6A1346DB0013449B0000
:105690000B442033196878687A6A1346DB00134498
:1056A0009B0003441C331B68194478687A6A1346CC
:1056B000DB0013449B000344203319607B6A002BFA
:1056C00013D179687A6A1346DB0013449B000B44BC
:1056D00024331B68002B08D17B6818687B6803F2B1
:1056E0009C431A46012104F075FE7B6ADBB2194621
:1056F000786807F04CF93B6903F00803002B08D0E9
:105700007B6A5A01FB69134403F510631A460823A8
:1057100093603B6903F01003002B08D07B6A5A01A9
:10572000FB69134403F510631A46102393603B6929
:1057300003F04003002B08D07B6A5A01FB69134435
:1057400003F510631A46402393603B6903F002039C
:10575000002B23D0796A386A03F062FE7A6A134616
:10576000DB0013449B0010337A68134404337B61DD
:105770007B69DB78012B08D17B690022DA707B6AB8
:10578000DBB21946786807F08FF97B6A5A01FB692A
:10579000134403F510631A46022393603B6903F038
:1057A0008003002B03D0796A786800F0BBFC7B6A29
:1057B00001337B62BB6A5B08BB62BB6A002B7FF470
:1057C0002EAF7B681B68184604F040FD034603F0CB
:1057D0000043B3F1004F22D1FB6903F500635B681E
:1057E000FA6902F5006223F0010353607B6893F8C5
:1057F000CC34012B08D17B68002283F8CC24002113
:10580000786800F0A1FE02E0786807F02DF97B6867
:105810001B685A697B681B6802F000425A617B680A
:105820001B68184604F012FD034603F40063B3F549
:10583000006F12D1FB6903F500639B6803F001035D
:10584000012B02D1786807F0E9F87B681B685A6978
:105850007B681B6802F400625A617B681B6818460B
:1058600004F0F4FC034603F48053B3F5805F40F08A
:10587000B780FB6903F500635B68FA6902F50062B3
:1058800023F0010353607B681B681021184603F066
:10589000C7FD0023FB6246E0FB6A5A01FB69134423
:1058A00003F510631A464FF67F339360FB6A5A0183
:1058B000FB69134403F510631B68FA6A5101FA6926
:1058C0000A4402F5106223F400131360FB6A5A01C4
:1058D000FB69134403F530631A464FF67F33936038
:1058E000FB6A5A01FB69134403F530631B68FA6ACB
:1058F0005101FA690A4402F5306223F4001313607F
:10590000FB6A5A01FB69134403F530631B68FA6AAA
:105910005101FA690A4402F5306243F000631360F2
:10592000FB6A0133FB627B681B791A46FB6A934270
:10593000B2D3FB6903F50063DB69FA6902F5006223
:1059400043F00113D3617B68DB7B002B16D0FB692E
:1059500003F50063D3F88430FA6902F5006243F07E
:105960000B03C2F88430FB6903F500635B6CFA69D2
:1059700002F5006243F00B03536415E0FB6903F585
:1059800000635B69FA6902F5006243F4005343F077
:105990002B035361FB6903F500631B69FA6902F588
:1059A000006243F00B031361FB6903F500631B689E
:1059B000FA6902F5006223F4FE6313607B681868DD
:1059C0007B6899797B6803F29C431A4604F002FDD8
:1059D0007B681B685A697B681B6802F480525A61B5
:1059E0007B681B68184604F031FC034603F400533F
:1059F000B3F5005F23D17B681B68184604F0C7FC31
:105A00007B681B68184603F084FD03461A467B68D2
:105A1000DA717B681C6801F007FA01467B68DB7964
:105A20001A46204603F088FA786806F0D8FF7B68AB
:105A30001B685A697B681B6802F400525A617B68D4
:105A40001B68184604F002FC034603F00803082B09
:105A50000AD1786806F0B5FF7B681B685A697B68D5
:105A60001B6802F008025A617B681B68184604F044
:105A7000EDFB034603F08003802B23D13B6A9B6937
:105A800023F080023B6A9A6101237B6214E079680B
:105A90007A6A1346DB0013449B000B4403F257233E
:105AA0001B78012B05D17B6ADBB21946786800F0C0
:105AB00008FB7B6A01337B627B681B791A467B6A31
:105AC0009342E4D37B681B68184604F0BFFB03468F
:105AD00003F48013B3F5801F3CD101237B622BE0DC
